{
  "contractName": "WaterContract",
  "abi": [
    {
      "inputs": [
        {
          "internalType": "uint256",
          "name": "flags",
          "type": "uint256"
        },
        {
          "internalType": "uint256",
          "name": "flag",
          "type": "uint256"
        }
      ],
      "name": "getFlag",
      "outputs": [
        {
          "internalType": "bool",
          "name": "",
          "type": "bool"
        }
      ],
      "stateMutability": "pure",
      "type": "function"
    },
    {
      "inputs": [],
      "name": "irrigation",
      "outputs": [
        {
          "internalType": "bool",
          "name": "",
          "type": "bool"
        }
      ],
      "stateMutability": "view",
      "type": "function"
    },
    {
      "inputs": [
        {
          "internalType": "contract DaoRegistry",
          "name": "dao",
          "type": "address"
        },
        {
          "internalType": "address",
          "name": "_addr",
          "type": "address"
        }
      ],
      "name": "isActiveMember",
      "outputs": [
        {
          "internalType": "bool",
          "name": "",
          "type": "bool"
        }
      ],
      "stateMutability": "view",
      "type": "function"
    },
    {
      "inputs": [
        {
          "internalType": "address",
          "name": "addr",
          "type": "address"
        }
      ],
      "name": "isNotReservedAddress",
      "outputs": [
        {
          "internalType": "bool",
          "name": "",
          "type": "bool"
        }
      ],
      "stateMutability": "pure",
      "type": "function"
    },
    {
      "inputs": [
        {
          "internalType": "address",
          "name": "addr",
          "type": "address"
        }
      ],
      "name": "isNotZeroAddress",
      "outputs": [
        {
          "internalType": "bool",
          "name": "",
          "type": "bool"
        }
      ],
      "stateMutability": "pure",
      "type": "function"
    },
    {
      "inputs": [
        {
          "internalType": "uint256",
          "name": "flags",
          "type": "uint256"
        },
        {
          "internalType": "uint256",
          "name": "flag",
          "type": "uint256"
        },
        {
          "internalType": "bool",
          "name": "value",
          "type": "bool"
        }
      ],
      "name": "setFlag",
      "outputs": [
        {
          "internalType": "uint256",
          "name": "",
          "type": "uint256"
        }
      ],
      "stateMutability": "pure",
      "type": "function"
    },
    {
      "inputs": [
        {
          "internalType": "uint256",
          "name": "humidity",
          "type": "uint256"
        },
        {
          "internalType": "contract DaoRegistry",
          "name": "dao",
          "type": "address"
        }
      ],
      "name": "triggerWatering",
      "outputs": [],
      "stateMutability": "nonpayable",
      "type": "function"
    },
    {
      "inputs": [
        {
          "internalType": "uint256",
          "name": "humidity",
          "type": "uint256"
        },
        {
          "internalType": "contract DaoRegistry",
          "name": "dao",
          "type": "address"
        }
      ],
      "name": "stopWatering",
      "outputs": [],
      "stateMutability": "nonpayable",
      "type": "function"
    },
    {
      "inputs": [],
      "name": "getHumidity",
      "outputs": [
        {
          "internalType": "bool",
          "name": "",
          "type": "bool"
        }
      ],
      "stateMutability": "view",
      "type": "function"
    }
  ],
  "bytecode": "0x60806040526000805460ff1916905534801561001a57600080fd5b506109dc8061002a6000396000f3fe608060405234801561001057600080fd5b50600436106100a35760003560e01c8063c576770c11610076578063da486d791161005b578063da486d7914610129578063ef6a24991461013c578063fc2580311461014f576100a3565b8063c576770c14610101578063ca0f463314610116576100a3565b80633428a9fc146100a85780637e177a8a146100c65780638ecf7720146100ce578063b244a41d146100e1575b600080fd5b6100b0610162565b6040516100bd9190610764565b60405180910390f35b6100b061016b565b6100b06100dc366004610667565b610174565b6100f46100ef3660046106e4565b610441565b6040516100bd919061076f565b61011461010f36600461069f565b61049d565b005b6100b0610124366004610613565b6104db565b61011461013736600461069f565b6104f6565b6100b061014a366004610613565b61053e565b6100b061015d3660046106c3565b6105a9565b60005460ff1690565b60005460ff1681565b6000808373ffffffffffffffffffffffffffffffffffffffff1663fefbd8757fea0ca03c7adbe41dc655fec28a9209dc8e6e042f3d991a67765ba285b9cf73a06040518263ffffffff1660e01b81526004016101d0919061076f565b60206040518083038186803b1580156101e857600080fd5b505afa1580156101fc573d6000803e3d6000fd5b505050506040513d601f19601f82011682018060405250810190610220919061062f565b905073ffffffffffffffffffffffffffffffffffffffff811615610395576040517fc89bb8ba00000000000000000000000000000000000000000000000000000000815260009073ffffffffffffffffffffffffffffffffffffffff86169063c89bb8ba9061029390879060040161071c565b60206040518083038186803b1580156102ab57600080fd5b505afa1580156102bf573d6000803e3d6000fd5b505050506040513d601f19601f820116820180604052508101906102e3919061062f565b905060008273ffffffffffffffffffffffffffffffffffffffff1663f7888aec83620ff1ce6040518363ffffffff1660e01b815260040161032592919061073d565b60206040518083038186803b15801561033d57600080fd5b505afa158015610351573d6000803e3d6000fd5b505050506040513d601f19601f82011682018060405250810190610375919061062f565b73ffffffffffffffffffffffffffffffffffffffff16119250505061043b565b6040517fa230c52400000000000000000000000000000000000000000000000000000000815273ffffffffffffffffffffffffffffffffffffffff85169063a230c524906103e790869060040161071c565b60206040518083038186803b1580156103ff57600080fd5b505afa158015610413573d6000803e3d6000fd5b505050506040513d601f19601f82011682018060405250810190610437919061064b565b9150505b92915050565b600081151561045085856105a9565b1515146104935781156104795761046883600261080d565b61047290856107af565b9050610496565b61048483600261080d565b61047290856108f4565b610496565b50825b9392505050565b806104a881336105c6565b5050600080547fffffffffffffffffffffffffffffffffffffffffffffffffffffffffffffff0016905542600155600455565b73ffffffffffffffffffffffffffffffffffffffff16151590565b8061050181336105c6565b5050600080547fffffffffffffffffffffffffffffffffffffffffffffffffffffffffffffff001660019081179091554290556014600255600355565b600073ffffffffffffffffffffffffffffffffffffffff821661dead14801590610580575073ffffffffffffffffffffffffffffffffffffffff821661babe14155b801561043b575073ffffffffffffffffffffffffffffffffffffffff8216614bec141592915050565b60006105bc600260ff841685901c61090b565b6001149392505050565b6105d08282610174565b61060f576040517f08c379a000000000000000000000000000000000000000000000000000000000815260040161060690610778565b60405180910390fd5b5050565b600060208284031215610624578081fd5b813561049681610973565b600060208284031215610640578081fd5b815161049681610973565b60006020828403121561065c578081fd5b815161049681610998565b60008060408385031215610679578081fd5b823561068481610973565b9150602083013561069481610973565b809150509250929050565b600080604083850312156106b1578182fd5b82359150602083013561069481610973565b600080604083850312156106d5578182fd5b50508035926020909101359150565b6000806000606084860312156106f8578081fd5b8335925060208401359150604084013561071181610998565b809150509250925092565b73ffffffffffffffffffffffffffffffffffffffff91909116815260200190565b73ffffffffffffffffffffffffffffffffffffffff92831681529116602082015260400190565b901515815260200190565b90815260200190565b6020808252600a908201527f6f6e6c794d656d62657200000000000000000000000000000000000000000000604082015260600190565b600082198211156107c2576107c2610944565b500190565b80825b60018086116107d95750610804565b8187048211156107eb576107eb610944565b808616156107f857918102915b9490941c9380026107ca565b94509492505050565b60006104967fffffffffffffffffffffffffffffffffffffffffffffffffffffffffffffffff848460008261084457506001610496565b8161085157506000610496565b816001811461086757600281146108715761089e565b6001915050610496565b60ff84111561088257610882610944565b6001841b91508482111561089857610898610944565b50610496565b5060208310610133831016604e8410600b84101617156108cc575081810a8381111561048e5761048e610944565b6108d984848460016107c7565b8086048211156108eb576108eb610944565b02949350505050565b60008282101561090657610906610944565b500390565b60008261093f577f4e487b710000000000000000000000000000000000000000000000000000000081526012600452602481fd5b500690565b7f4e487b7100000000000000000000000000000000000000000000000000000000600052601160045260246000fd5b73ffffffffffffffffffffffffffffffffffffffff8116811461099557600080fd5b50565b801515811461099557600080fdfea2646970667358221220a6369d29ae8331311665b045d154ab9b5f4f18d820f7f75bb1838662c73dd6de64736f6c63430008000033",
  "immutableReferences": {},
  "source": "pragma solidity ^0.8.0;\n\n// SPDX-License-Identifier: MIT\n\nimport \"../core/DaoRegistry.sol\";\nimport \"../core/DaoConstants.sol\";\nimport \"../guards/AdapterGuard.sol\";\nimport \"../guards/MemberGuard.sol\";\n\ncontract WaterContract is DaoConstants, AdapterGuard, MemberGuard {\n    bool public irrigation = false;\n    uint256 timestamp;\n    uint256 wateringTime;\n    uint256 triggerHumidity;\n    uint256 newHumidity;\n\n    function triggerWatering(uint256 humidity, DaoRegistry dao)\n        external\n        onlyMember(dao)\n    {\n        irrigation = true;\n        timestamp = block.timestamp;\n        wateringTime = 20;\n        triggerHumidity = humidity;\n    }\n\n    function stopWatering(uint256 humidity, DaoRegistry dao)\n        external\n        onlyMember(dao)\n    {\n        irrigation = false;\n        timestamp = block.timestamp;\n        newHumidity = humidity;\n    }\n\n    function getHumidity() public view returns (bool) {\n        return irrigation;\n    }\n}\n",
  "sourcePath": "/Users/keno/repos/gartenlaube-contracts/contracts/adapters/Water.sol",
  "compiler": {
    "name": "solc",
    "version": "0.8.0+commit.c7dfd78e.Emscripten.clang"
  },
  "schemaVersion": "3.3.4",
  "updatedAt": "2021-06-21T11:01:56.174Z",
  "devdoc": {
    "kind": "dev",
    "methods": {},
    "version": 1
  },
  "userdoc": {
    "kind": "user",
    "methods": {
      "isNotReservedAddress(address)": {
        "notice": "Checks if a given address is reserved."
      },
      "isNotZeroAddress(address)": {
        "notice": "Checks if a given address is zeroed."
      }
    },
    "version": 1
  }
}